:020000040000FA
:10800000E0C3002069C3000043A201003DC300009B
:108010003DC300003DC300003DC300003DC3000060
:108020000000000000000000000000005DBC000037
:108030003DC3000000000000FDBB00003DC3000088
:10804000E5BC0000E5BC0000E5BC0000E5BC0000AC
:10805000E5BC0000E5BC0000E5BC0000E5BC00009C
:10806000E5BC0000E5BC0000E5BC0000E5BC00008C
:10807000E5BC0000E5BC0000E5BC0000E5BC00007C
:10808000E5BC0000E5BC0000E5BC0000E5BC00006C
:10809000E5BC0000E5BC0000E5BC0000E5BC00005C
:1080A000E5BC0000E5BC0000E5BC0000E5BC00004C
:1080B000E5BC0000E5BC0000E5BC0000E5BC00003C
:1080C000E5BC0000E5BC0000E5BC0000E5BC00002C
:1080D000E5BC0000E5BC0000E5BC0000E5BC00001C
:1080E000E5BC0000E5BC0000E5BC0000E5BC00000C
:1080F000E5BC0000E5BC0000E5BC0000E5BC0000FC
:10810000E5BC0000E5BC0000E5BC0000E5BC0000EB
:10811000E5BC0000E5BC0000E5BC0000E5BC0000DB
:10812000E5BC0000E5BC0000E5BC0000E5BC0000CB
:10813000E5BC0000E5BC0000E5BC0000E5BC0000BB
:10814000E5BC0000E5BC0000E5BC0000E5BC0000AB
:10815000E5BC0000FFFFFFFF53B94AB9002908BF83
:1081600000281CBF4FF0FF314FF0FF3000F00CB87B
:10817000ADF1080C6DE904CE00F008F8DDF804E07C
:10818000DDE9022304B07047704700BF2DE9F047D6
:1081900086468C460846089E154674461946002BAE
:1081A00040F0C1808542B2FA82F245D94AB1C2F1AB
:1081B000200300FA02FC954094402EFA03F343EAB0
:1081C0000C0C4FEA154EA8B2230CBCFBFEF80EFBBC
:1081D00018CC08FB00F943EA0C43994528D9EB1861
:1081E00008F1FF3704D2994502D9A8F102072B44C0
:1081F000A3EB0903A4B2B3FBFEFC0EFB1C330CFB88
:1082000000F044EA0344A04214D92C190CF1FF33C6
:1082100004D2A04202D9ACF102032C44241A43EA4E
:1082200007401EB1D440002334607360BDE8F0877E
:108230004746DDE76346F1E792BB431B01214FEA66
:10824000154EAFB2200CB3FBFEFC0EFB1C330CFB37
:1082500007F840EA0343984561D9EB180CF1FF3069
:1082600004D2984502D9ACF102002B44A3EB0803D9
:10827000A4B2B3FBFEFC0EFB1C330CFB07F744EA75
:108280000344A7424DD92C190CF1FF3304D2A74265
:1082900002D9ACF102032C44E41B43EA0040C0E7DE
:1082A000C2F120039540944020FA03F12EFA03F323
:1082B0004FEA154E9040AFB20343B1FBFEFC0EFBFC
:1082C0001C10190C0CFB07F841EA0041884522D923
:1082D00069180CF1FF3004D2884502D9ACF10200D4
:1082E0002944A1EB08019BB2B1FBFEFC0EFB1C1163
:1082F0000CFB07F743EA01439F420ED9EB180CF140
:10830000FF3104D29F4202D9ACF102012B44DB1BA6
:1083100041EA004193E76046E3E76146F7E76046DC
:10832000A4E76346B8E7834206D916B90021084698
:108330007CE7C6E900E0F9E7B3FA83F78FB9834237
:1083400001D3724508D8BEEB020460EB03030120A1
:108350009C461EB9002169E73846FAE7C6E9004C99
:10836000F8E7C7F1200CBB400EFA07F522FA0CF42F
:108370002EFA0CF1BA401C4320FA0CF3B8404FEA35
:10838000144901431FFA84FEB3FBF9F809FB1830C6
:108390000B0C08FB0EFA43EA00439A4540D9E31858
:1083A00008F1FF3004D29A4502D9A8F10200234413
:1083B000A3EB0A0389B2B3FBF9F809FB183308FBF6
:1083C0000EFE41EA03418E452CD9611808F1FF33B6
:1083D00004D28E4502D9A8F10203214443EA0040A9
:1083E000A1EB0E01A0FB02984145CE46434602D3C5
:1083F00006D14D4504D20138B9EB020E68EB0403F7
:10840000002EA7D0B5EB0E0261EB030101FA0CFCC4
:1084100022FA07F3F9404CEA0303C6E9003199E771
:108420004046C5E74346D9E72DE9F04188B0654DA0
:1084300000AFD5F86431996811F001011AD140F606
:1084400003403A1D04F0BAFF0446002840F0B4800F
:108450007868C3681B785BB905F1D403D3E8AF2F04
:1084600002F00902D3E8EF1FC3E8E42F002CF9D192
:108470000BF0A0FE002141F203003A1D04F09EFF24
:108480000446002840F098807E680822F1684E4833
:10849000013111F06CFF30460BF08CFE214641F2A9
:1084A00001003A1D04F08AFF0446002840F0848051
:1084B0007868C3685A7885F870205A88A5F87220C1
:1084C0001A7985F87120B3F80720A5F87420B3F85D
:1084D0000530A5F876300BF06DFE214641F2020022
:1084E0003A1D04F06BFF0446002865D17C684022E9
:1084F000E1683648013111F03AFF20460BF05AFE90
:1085000006F002FE0446002856D195F88A309906F6
:108510001CD42F4B4FF48451FB6102232D48BB61C7
:1085200007F1180211F0FBFF95F87C305A0655D47C
:10853000294B4FF48251FB6102232648BB6107F1AE
:10854000180211F0ECFF6FF0120435E0072140F63D
:10855000334004F0F9FE8046002800F04A810721EC
:108560000C3013F0F0FF21460722064611F00AFFF7
:10857000452333700623224674703471414640F619
:108580003340F37004F01AFF0446A8B9012140F605
:10859000314004F0D9FE0646002800F02A8101216E
:1085A0000C3013F0DFFF2246314640F6314004F034
:1085B00005FF04460028B7D020462037BD46BDE859
:1085C000F08100BF008000207880002080800020A3
:1085D000E4FF01005CE5010012000200002142F20C
:1085E000030007F1080204F0E9FE04460028E3D185
:1085F000BE680822F168AA48013111F0B8FE304681
:108600000BF0D8FD214642F2020007F1080204F007
:10861000D5FE04460028CFD1BC68E368B3F801203A
:1086200091B241B1D97831B1A5F80421DA789D48E9
:10863000114615F038F920460BF0BCFD95F87C602A
:1086400016F0200618D1022140F66D4004F07CFEA1
:108650000446002800F0CD8002210C3013F073FF97
:108660000123214603704670324640F66D4004F007
:10867000A5FE044600289FD195F89C301B0713D512
:10868000002142F21C0007F1080204F097FE0446A4
:10869000002891D1B868C368D3F80120D3F8053019
:1086A000C5E938230BF086FD95F8D8309E0622D513
:1086B000391DB81C04F002FF044600287FF47CAF8B
:1086C000042142F2240004F03FFE0646002800F098
:1086D000908004210C3013F036FF7B882246038003
:1086E000BB883146438042F2240004F067FE044612
:1086F00000287FF461AF95F8D8305C0611D50021D1
:1087000042F22A0007F1080204F058FE044600284D
:108710007FF452AFB868C3685B7885F820310BF0FE
:1087200049FD082142F2010004F00EFE0446002833
:108730005FD008210C3013F006FF95F8D81040F2F6
:10874000022311F0400F08BF0323024688074CBFE5
:1087500043F02C0043F00C008B0695F8D93048BF4D
:1087600040F0400013F0090F95F8A23018BF40F414
:10877000006003F00603CE0748BF40F01000062B50
:1087800008BF40F4C070002111F0D4FE2146002241
:1087900042F2010004F012FE044600287FF40CAF00
:1087A00095F87C30B5F80411980625D4D1B941F27A
:1087B000050007F1080204F001FE044600287FF4DA
:1087C000FBAEB5F80431BC684BB9E368B3F80120DF
:1087D000A5F804219A883348114615F064F820461C
:1087E0000BF0E8FC082140F6014004F0ADFD044622
:1087F00090B96FF06804DFE60029F3D12A4B4FF4FB
:108800008251FB6102232948BB6107F1180211F074
:1088100086FE6FF00404CFE608210C3013F093FEBF
:1088200095F8D8300246D9072FD44FF00051204890
:1088300011F080FE2146002240F6014004F0BEFD0A
:10884000044600287FF4B8AE01463A1D4FF60140B9
:1088500004F0B4FD80B3174BFB6102234FF4845145
:108860001248BB6107F1180211F059FE06F0B0F88A
:10887000044600287FF4A0AE07F08CFC04460028D4
:108880007FF49AAE05F0B6FB96E603A1D1E90001AC
:10889000CEE700BFAFF30080908800020080002088
:1088A000D880002008810020360002005CE501002D
:1088B00010880002590002007B686D46DC688AB0AF
:1088C000B4F80130032B96BF454A464952F82310AD
:1088D0006A46D3614FF4007343481384434BC2E9A3
:1088E000050142F8103F4FF41351414811F017FEB3
:1088F000B4F80120AD46022AB4F8033048D1032B66
:1089000046D83C4A52F823106D468AB06A46D36175
:108910004FF4007338481384344BC2E9050142F820
:10892000103F4FF41351324811F0F9FDAD46637911
:10893000A679032B98BF314AB4F80750D4F8090040
:108940006C468CB094BF52F8231026496A46C2E99F
:1089500007364FF40073DFF8A8C09385294BC2E9AE
:1089600005C1C2E909504FF4735142F8103F204845
:1089700011F0D5FDA54678680BF01CFC00214FF6E0
:1089800002403A1D04F01AFD044618B11E4B63E77D
:108990001449B9E77D680222E9681C48013111F0E9
:1089A000E6FC28461A4D0BF005FC95F8C1305B0734
:1089B0007FF55CAF21464FF603403A1D04F0FEFC04
:1089C00008B1144B48E701227C6805F1C000E1685A
:1089D000114411F0CCFC20460BF0ECFB46E700BF45
:1089E00014EA010032FA01007D00020004000001D7
:1089F0005CE5010004EA010096000200F4E90100D0
:108A0000AE00020007000001DB000200C180002070
:108A10000080002004010200014B1878704700BF5D
:108A2000549C0020CB0710B506D500F00104204669
:108A300000F022FA014B1C7010BD00BF549C0020B6
:108A400090B587B000AF89B16C4688B06A460F4BCD
:108A50000F48C2E9053103234FF4C65142F8103FD5
:108A60000FF00EFFA5461C37BD4690BD094B4FF4D5
:108A700086517B610223064807F110023B610FF02B
:108A8000FFFE012013F08EFFEDE700BF58EF01005D
:108A900004E5010074EF010098B500AF6C4688B0A2
:108AA0006A46084B0848C2E9053103234FF4C65112
:108AB00042F8103F0FF0E4FE0120A54613F075FFC9
:108AC000BD4698BD7FEF010004E5010070B5037855
:108AD0008AB004460E4607AD032B20D8DFE803F02A
:108AE00002191B1D1149284611F0E4FB0595637816
:108AF0001E210493A37830460393E3780C4A029333
:108B00002379019363790093A3790FF036FF0AB0BC
:108B100070BD0849E7E70849E5E70849E3E70A21A6
:108B20002846074A0FF029FFE0E700BF99EF010050
:108B3000BBEF0100A0EF0100A7EF0100B1EF0100C2
:108B40006D100200F0B5144689B000AF0D4612F06A
:108B5000E0F83946FFF7BAFFACB96C468AB06A460E
:108B6000144BD561C2E905374FF400731384124BDF
:108B70004FF41351114842F8103F0FF081FEA54603
:108B80002437BD46F0BD6E468AB06B460C4AC3E939
:108B90000754C3E905274FF400729A841A46094B1B
:108BA0004FF43351054842F8103F0FF069FEB546C7
:108BB000E6E700BFDEEF01000400000104E501006C
:108BC000FDEF01000500000180B588B000AF12F094
:108BD000A0F83946FFF77AFF88B06A46084B4FF491
:108BE000E651C2E905374FF400739383054B0648FD
:108BF00042F8103F0FF044FE2037BD4680BD00BF55
:108C000022F001000300000104E5010090B589B0E5
:108C100000AF0C4612F07DF83946FFF757FF8AB0D7
:108C20006A46094BD461C2E905374FF400731384D7
:108C3000064B4FF41351064842F8103F0FF020FE48
:108C40002437BD4690BD00BF39F00100040000018B
:108C500004E501002DE9F0418EB06E4602AF4FF001
:108C600002084A4B4FF486514948FB6207F128023B
:108C7000C7F828800FF004FE0CF0DAFE40B188B08F
:108C800002AA444BC2E90530032342F8103F2CE00E
:108C900041480CF007FF044690B9404807F058FAE5
:108CA000044648B33E4B4FF48651C7E90A8338481F
:108CB00007F128020FF0E4FD3037BD46BDE8F08132
:108CC00088B002AA0325374B4FF4C651C2E90530DC
:108CD00042F8105F2E480FF0D3FDB54688B002AAC7
:108CE000314BC2E9053442F8105F4FF4C6512848B1
:108CF0000FF0C6FDB546DFE72C4807F051F82046D7
:108D000005F02EFA18B188B002AA294BBAE7294813
:108D100000F0A8F818B188B002AA274BB2E7274B99
:108D2000274D4FF48651C7E90A83194807F12802F5
:108D30003C1D0FF0A5FD0FCD0FC42B6842462360EC
:108D4000012320490093381D1F4B06F0A3F8044669
:108D500028B188B002AA1D4BC2E9053094E71C4B2C
:108D60004FF48651C7E90A83094807F128020FF03A
:108D700087FD013404F0010100200CF025FF0021E3
:108D80004FF400400FF03AFAF3E700BF4FF0010054
:108D900004E5010070F00100258A000070810020C8
:108DA000C7F001008BF00100AAF0010088810020CB
:108DB000F3F001006881002013F1010030F101009F
:108DC00050E6010030E7010028E7010047F101000B
:108DD0006DF101004B1E59425941014B197070470A
:108DE000569C002008B5012BBDF808100CD171B9B4
:108DF0000A4B1B680BB9012008BD1078012809D85F
:108E000000F001009847F6E76FF00C00F4E76FF010
:108E10000600F1E76FF01200EEE700BFA097002018
:108E20002DE9FF411F460D4B054658680C46164676
:108E300080B1D1F80C808047094B3246187001236D
:108E4000CDE90183BDF828302146009328463B46F2
:108E500012F02EFE04B0BDE8F08100BFA097002004
:108E6000559C002020B1034B02681A6042685A608A
:108E700000207047A097002000B50E4B89B01B78EA
:108E80008DF807009BB10021182202A811F07AFA90
:108E9000094B002003930DF107030493012302A95A
:108EA000ADF8143009F00AF909B05DF804FB6FF071
:108EB0000C00F9E7569C002068E701002DE9F04F0F
:108EC00091B0009302F004030293C2F3C203013392
:108ED000840705460E46DDF868800392059340F04E
:108EE000BD81041D30B1072909D86FF01B0011B0F6
:108EF000BDE8F08F01F00706341DC6F10806009B9F
:108F00004FF000094FF0040A591E4FF0FF334F464F
:108F10000193CB465346CDF810900DB1009A2260D4
:108F20000598002800F3EB809948009A824203D309
:108F300098488242C0F0E380039AA4EB050E9207A2
:108F40004FEA9E0000F106810F2F00F2B480002D41
:108F500000F0088107F140020DEB020C019A0CF8B9
:108F6000200C0CF8102C049801300490EAE07A28C8
:108F700060D84B280ED847285CD829282FD8252818
:108F800055D057D820287DD02338D0F1000B4BEB9B
:108F9000000B77E0A0F14C0CBCF12E0F4AD8DFE8B3
:108FA0000CF07149494949494949494949494C499C
:108FB000494949494949495A494C4C5A5A5A714CAC
:108FC0006E497149184C18494983804C49494C49AC
:108FD000800000204FF0000B4FF0040A39E001221E
:108FE000A0F12A0C5FFA8CFC02FA0CFC1CEA0E0FB2
:108FF00048D11CF062502ED11CEA020B42D0013C39
:109000005444CAF1000C04EA0C04002D61D0A3EB17
:10901000050CA444B4453FF668AF002868D1042B82
:1090200047D158F8043B2360042304342AE0019A12
:10903000013A01924FF0000B24E011F8010C6C286A
:1090400034D1002011F8023C83466C2BC4D14FF080
:10905000080A5346D3E708F1070828F00708073441
:1090600024F00704F8E802AB35B106982044B0427A
:109070003FF63BAFC4E900AB4FF0000B08344FF0B4
:10908000080A534611F8010F002878D0BBF1000FF1
:109090007FF46DAF2528F5D14FF0010B019B013313
:1090A00001934FF0040AECE7584693E7002083460B
:1090B000A5E7082B02D06FF0150018E708F10708A4
:1090C00028F00708F8E80223C4E90023082308343D
:1090D000D8E768B9042B02D108F10408A4E7082BEB
:1090E000E9D108F1070828F0070808F10808EDE7BA
:1090F000059A013A059258F8042B00920DE7039A5D
:10910000900720D54FF0010CA4EB050E4FEA9E000E
:10911000BEF5007FCFD20F2FCDD8F5B107F14002B9
:109120000DEB020E019AC0B20EF8200C0EF8102CB6
:10913000BCF1000F3FF417AF60F07F000EF8200C79
:1091400009F101090137C5F108024FF6DA7E04344E
:10915000069297E74FF0000CDAE7BCF1000F01D060
:109160000136EFE7029802360028EBD10098CDE9EE
:10917000063111F0BDF8DDE906310644E2E7631B74
:10918000B3F5806F97D23DB9A6F10804E018AEE6BA
:10919000FCE0010044190200029A9B0828602B7031
:1091A0009DF81030C2B1EB7085F80290B9F1000F54
:1091B00005D0002208A8C5F1010C97420ED14FF04E
:1091C000000AC5F101030DF1200801930DF1300BE8
:1091D000574512D1601B8AE66B70E5E710F8013B3A
:1091E000190608D504EB0C0EB64503F07F033FF6D5
:1091F0007CAE04F8013B0132DFE7B9F1000F03D088
:1092000098F90020002A17DB029BD3B11AF80B2033
:1092100004F8012B0022019B98182044B0423FF62D
:1092200064AE98F80000009904F8010B2046039200
:1092300011F09DF8039A14440AF1010A08F101089B
:10924000C6E798F8002055F822300093029B00985A
:1092500045F8223011F04CF8421CDCE76FF00D00AD
:1092600045E600BF2DE9F04F95B000AFD7F878B0D4
:10927000BB61CBF3C00304467A623B61396251B9EA
:1092800003784678807800EB830020443B6A9E4256
:109290001AD8031B3B6294F802A0E37856467B6120
:1092A000BAF1000F02D01BF0010F17D17B695BBB35
:1092B0007B6A1BB12046BA69396A98473D6A2846DD
:1092C0005437BD46BDE8F08F451C284611F010F814
:1092D0003B6A0130013328443B62D7E7636894F866
:1092E0000080FB617B6A4FEA8802FA6004EB880821
:1092F000002B40F00281C14600263D6A0AEB0803BC
:109300004B454ED1D04413E01BF0020FD0D094F85F
:1093100000804FEA8803FB60636804EB8808FB6108
:109320007B6A002B78D13D6ABAF1000F4ED15646C8
:109330001BF0050F0CBF022301237B627B6908EB46
:10934000430A0BF002033B62D045B8D018F8021B69
:1093500018F8013C54F82390AD4B994502D3AD4B1E
:10936000994539D33B69002B43D0F8690FF0BCFA1B
:1093700000283ED0E9468AB06A46A74B5361FB6994
:10938000C2E906314FF400731384A44B42F8103F36
:1093900000234FF41251A24801F08CFD023DCD464E
:1093A000D2E719F8012B7B6254F8220010F0A0FFDD
:1093B000FA6F7B6A01303AB1D7F8802096423EBFFF
:1093C000FA6F22F816000136054499E71BF00406EF
:1093D0001CBF7E6AD044ABE73B6923B1F8690FF04C
:1093E00083FA0028C6D11BF0010F05D17B6AED1A64
:1093F000AAE73B6A002BA7D0484610F079FFFB6F25
:1094000043B1D7F880309E423FBFFA6F431C22F829
:1094100016300136054497E7BAF1000F72D01BF001
:10942000040672D0D146002607F14000524641465C
:1094300010F09DFF7B69D0445B00BB607B6908EB4B
:1094400043037B610BF002037B607B6998455ED12F
:1094500023781BF0020FFB61637818BF002106EB35
:10946000030208BF4FEA59011BF0010FD2B240F0CE
:109470009D801BF0040F14BF4846002094F802B0F2
:1094800094F803803B616270A070E1702046BA6975
:10949000F9687B6A9847051EFFF611AFFB6984F8EF
:1094A000038023703B6949466370BA697B6A84F81C
:1094B00002B007F140009847B0F10008C0F2A38065
:1094C0003B6ABA69A3EB0A01FB687869C91ABB68F1
:1094D000C91A7B6A98470028C0F297804FF0000BAA
:1094E000A84408EB000507F1300AB34560D300211A
:1094F000BA6908467B6A9847E1E64FF0000907F130
:10950000300093E75646D14694E7B14692E718F803
:10951000021B3F4A18F8015C54F82530934202D3ED
:109520003C4A93421CD33B6923B1F8690FF0DCF944
:1095300000288AD17B68F3B909F1280207F12800D5
:10954000024409F1010302F8101C07F1500209F16D
:10955000020952FA83F35FFA89F903F8105C74E7A1
:109560003B692BB1F8690FF0BFF900287FF46DAFAC
:109570001BF0010F09D006F1280207F12801731C26
:10958000561806F8205CDEB25FE71BF0040F3FF4CC
:109590005CAF09F1280207F1280109F1010302EB90
:1095A000010909F8105C5FFA83F94EE7002065E7CE
:1095B0001BF80A3054F8239087F82F30FB6FFBB16B
:1095C00033F81B800121BA697B6A07F12F009847A5
:1095D00000281ADB0544B8F1000F06D1484610F008
:1095E00087FE00F101081FFA88F841464846BA692B
:1095F0007B6A9847002808DB05440BF1010B74E7F0
:10960000D7F87C80DEE7454659E6054657E600BFB9
:10961000FCE0010044190200B3F101000400000164
:10962000A4E50100014B1860704700BFD8810020FD
:1096300030B5002587B0CDE903010446009503A9A4
:109640000548059500F018F9DDE904309842B8BFE7
:10965000255407B030BD00BF378901002DE9F04720
:10966000058B04462807904611D4022905F007050A
:1096700040F0CD8020460FF05CFB78B10138218BA3
:10968000042811D8DFE800F0C3106D85950001298A
:109690000CBF45F0100545F02005258388F311889F
:1096A000BFF36F8FBDE8F08701F0070AAA4500F00D
:1096B000A6800027B9463E46A368002B00F0BD8077
:1096C00041F00801218388F31188BFF36F8FA168EF
:1096D000002900F0BB800D68002900F0B7803346F8
:1096E00052462046D1F80480C047002D76D02B6822
:1096F00029461D46F0E701F007035A1F012A1BD82F
:10970000002221F00701062B276889B2C4E9002254
:1097100009D13B4603E0628B013262831B68002B58
:10972000F9D141F00201204621830FF002FB00280D
:109730007BD041F0200177E0042B0AD121F0070112
:1097400089B2204621830FF0F4FA10B141F02001D4
:109750002183218B01F0070AAA4550D00027B94682
:10976000AAE7236921F0070141F00601062DD3F88D
:10977000009021832DD1B9F1000F40D041F00801B4
:10978000218388F31188BFF36F8F20463949C8477A
:1097900029E021F00701236941F0040189B2042D79
:1097A000D3F804902183E6D000274FF0040A3E4608
:1097B00082E721F00701236941F0050189B2052DF7
:1097C000D3F808902183D6D000274FF0050A3E46F3
:1097D00072E700274FF0060A3E466DE72B4687E703
:1097E000B9F1000FD1D14FF02003EFF3118883F3CB
:1097F0001288BFF36F8F238B23F008032383258BFD
:10980000EA062ED525F01003238305F007056669C7
:10981000218B002EBFF66FAF00232768C4E9003309
:1098200021F0070141F001012183218B4FF0000954
:1098300001F0070AAA457FF43FAF002F9BD041F00B
:109840000801218388F31188BFF36F8F002FC7D0E1
:109850003D6839463346524620460FF096FA2F4669
:10986000F4E7AB067FF51AAF25F02003238305F05C
:109870000705FFE6B78D01002DE9F04F81468B46C5
:1098800017461C46002595B0387808B9284657E396
:109890007B1C2528039306D05946C8470028C0F2F0
:1098A0004F830135FBE1182200210EA810F06AFD5C
:1098B0007B78252B7DD0002398469E469C461E46ED
:1098C000781C014610F8012B2B2A00F0A18000F231
:1098D0009880202A00F09F80232A00F09F802BB1DF
:1098E0009DF8403043F040038DF84030B8F1000F50
:1098F00005D09DF8403043F020038DF84030BEF194
:10990000000F05D09DF8403043F010038DF8403033
:10991000BCF1000F05D09DF8403043F008038DF8EE
:1099200040302EB19DF8403043F004038DF84030B4
:109930009DF8403003F04400442803D16FF38613B0
:109940008DF840309DF840302A2A43F080038DF88E
:1099500040307FD19DF841204B1C42F001028DF830
:1099600041201A782E2A0CBF012100219DF84120A8
:1099700061F341028DF8412078D15A782A2A6ED0BD
:1099800000224FF00A0C0133194611F8010BA0F127
:109990003006092E40F295809DF840101292C1F3D6
:1099A000400040EAD2700A4660F341028DF8402040
:1099B0005CE0BA1C03928DF843309DF84130DA0721
:1099C00040F12E8154F8048BB8F1000F07DA9DF8AE
:1099D0004020C8F1000842F004028DF840205E07E4
:1099E00040F1278154F804ABBAF1000F80F22681D0
:1099F0009DF841306FF341038DF841304FF0FF3A4D
:109A00001CE12D2A0DD0302A7FF469AF012358E7DD
:109A10004FF0010C55E74FF0010E52E74FF00108EF
:109A20004FE701264DE703460EFB0262303A184627
:109A300010F8016BA6F1300CBCF1090FF3D9994273
:109A40008FD09DF840101192D20F62F341018DF832
:109A5000401086E70B4600224FF00A0EE7E79DF81C
:109A60004120023342F004028DF841201A786C2A1A
:109A700047D02BD8682A31D06A2A4BD04C2A51D0F3
:109A80001A4612F8013B782B03928DF843309DF86B
:109A9000412000F2BE806D2B51D8692B00F2B980B5
:109AA000572B67D8412B03D0453B022B00F2B180E6
:109AB00004229DF8423062F302038DF84230012304
:109AC00073E00CFB02020B46303A5DE7742A25D0A6
:109AD0007A2AD5D106219DF841200CE05A78682ACF
:109AE0009DF8412006D1012161F3C6028DF8412085
:109AF0000233C5E7022161F3C6028DF8412001332C
:109B0000BEE75A786C2A9DF8412001D10421EBE789
:109B10000321F0E705219DF84120ECE707219DF89E
:109B20004120E8E7BDF8402022F4F04222F0020292
:109B300042F4804242F00202ADF84020DFE76E3B83
:109B4000D9B201238B4040F282410B4237D113F04E
:109B5000240F51D1D8075CD503219DF8423061F321
:109B600002038DF8423002F07803A3F140014B422A
:109B70004B411AE00120A3F15801C9B200FA01F1EA
:109B800011F4624F94D140F6010631421DD111F417
:109B9000043F3ED09DF8423060F3020302F07802A9
:109BA000402A8DF8423034D000239DF84020C2F383
:109BB00040010B4363F341028DF84020FDE6022192
:109BC0009DF8423061F30203E8E702209DF842105D
:109BD00002F0780260F30201402A8DF8421002BFC1
:109BE0009DF8401041F001018DF84010632BDBD14E
:109BF000131E18BF0123D8E703219DF8423012F04D
:109C0000780F61F302038DF8423014BF0123002363
:109C1000CBE79DF8403043F001038DF84030C3E7B7
:109C20009DF94020002AACBF4FF0FF38DDF844809A
:109C3000D5E698077FF5E2AEDDF848A00023CDE930
:109C400011339DF842309DF8411003F00703012BBA
:109C5000C1F3C30133D1CB1E042B04D8DFE803F0DA
:109C6000214646212100236801294FEAE372CDE90C
:109C70000E321CD19DF93830DA17CDE90E3204349A
:109C80009DF8403013F0030650D03A4659464846F6
:109C9000039B0FF07CF90028C0F252810544039F1A
:109CA000F2E554F8043BDA17CDE90E32E8E7022971
:109CB000E5D11AB243F3C033CDE90E23DFE7022B1F
:109CC00024D1CB1E042B04D8DFE803F018101018A1
:109CD000180001294FF0000254F8043B14D0022967
:109CE000CDE90E32CCD19BB20E93C9E7073424F0F4
:109CF0000704F4E80223CDE90E23C1E754F8043B3E
:109D00000E9300230F93BBE7DBB2CDE7042B08D102
:109D1000073424F00704D4E900230834CDE90E23E6
:109D2000AEE7032BACD154F8043BDDE79DF84300CC
:109D30007828B4D862281CD825283FF4ADAD58281F
:109D4000ADD1DDE90E010DF13603009310AA08AB89
:109D50000FF0D7F8BAF1000F074680F29980002F74
:109D60009DD00DF13603D81B002E00F0C0800130CD
:109D7000BDE06338152892D801A252F820F000BF48
:109D8000559E0000679E00009F9C00009F9C000065
:109D90009F9C00009F9C0000679E00009F9C00000D
:109DA0009F9C00009F9C00009F9C0000F39E000071
:109DB0008B9E0000B19E00009F9C00009F9C0000B5
:109DC000D99D00009F9C00008B9E00009F9C00007E
:109DD0009F9C00008B9E0000BAF1000F0E9F35DBA8
:109DE0005146384610F08BFA07EB000A002F3FF47B
:109DF00056AF00269DF8423013F01002059200F095
:109E0000928002305B06119A48BF129B104448BFF3
:109E1000C018B8F1000F049240F39F809DF84020D5
:109E2000A8EB0008C2F380035007069300F1958069
:109E3000510640F188803EB159463046C847002857
:109E40007EDB069B01351E4630227DE0384610F051
:109E50004FFAC9E70E9B002601208DF8203008AF8D
:109E60000DF1210AC6E719075ABFC3F300135E01BB
:109E70002B26DDE90E23002BBFF663AF524263EBC6
:109E800043032D26CDE90E235BE7002659E7002684
:109E90009DF840200DF13603DB1B6FF386129A45C7
:109EA0008DF840207FF65BAFAAEB0303119356E7D2
:109EB0000E9890B30DF136030093002108AB10AA61
:109EC0000FF01FF8BDF84230BAF1000F03F0EF03B6
:109ED00043F4F04343F010030746ADF84230D6DABE
:109EE00000283FF4DCAE00260DF13603181A9A461E
:109EF00080E70E9B07293FF6D2AEDFE801F00C04A5
:109F0000060C08080C0C1D70C9E61D80C7E6EA1790
:109F1000C3E90052C3E61D60C1E62F4F064607F1B4
:109F2000050A052066E71A0748BF01306AE71046B0
:109F3000079306925946C847DDE90623002804DA4C
:109F400015B0BDE8F08F202243461946002903F1E1
:109F5000FF33ECDC454498466D1A2EB15946304625
:109F6000C8470028ECDB01359DF84230DA0601D401
:109F70001B0705D559463020C8470028E0DB0135CE
:109F8000059B33B159469DF84300C8470028D7DBED
:109F90000135049E2E4405E059463020C84700286C
:109FA000CEDB0135731B002BF6DC53463A4659468F
:109FB00048460EF0ECFF0028C2DB0544A844A8EB9D
:109FC0000503002B7FF76BAE59462020C8470028B9
:109FD000B6DB0135F3E700BF67F20100052370B57A
:109FE000144D154E2C780134B4FBF3F303EB8303CB
:109FF000E41A12F0ABFC114A137823B156F824305E
:10A00000C01A072813D90E4BD3F8141141B10021FF
:10A01000C3F81411D3F814312C700CB90123137048
:10A020002C7812F093FC46F82400012070BD00202B
:10A03000FCE700BF589C0020A8970020579C0020F8
:10A040000050004048B1054B054A1B68B3FBF2F3D2
:10A050005843044B43F001031847704730830020F6
:10A0600040420F0020E70100F0B583B000AF381D7B
:10A070000CF052F8274B984249D10BF0DFFA041E3E
:10A0800013DA38790CF04EF86D4688B06A46224BE8
:10A09000C2E90534032342F8103F00234FF4C251B4
:10A0A0001E4800F007FFAD462DE040F607031C4DAB
:10A0B0007C71AE68FB8074687B6814B96FF05704DC
:10A0C000E2E708212846174AA047041EDCDB336973
:10A0D000002BF3D00122082128469847041ED3DB29
:10A0E00001233D79104AAB40C2F804357879FE79F6
:10A0F00012F021FC0D4B45F00045B600C0F8805031
:10A100009D51002CC0D120460C37BD46F0BD6FF0EC
:10A110001204B9E70000AD0B71F2010024E6010062
:10A1200054E2010075A100000070014080A10240CE
:10A1300038B5049CC4F3072528460BF0F1F800213C
:10A140000A4BA20B02F0FC02C0F8801099500123C8
:10A15000E4B2074AA3402846C2F808350BF08CFA4F
:10A160002046BDE838400BF0DDBF00BF80A00240B4
:10A1700000700140F7B5144683681B690BB10022DB
:10A180009847C4F3072630460BF0D2F80546304610
:10A1900012F0D1FB0027104B220E9200C0F8807005
:10A1A0009F5030460BF0BCF8A20B0C4B02F0FC02A7
:10A1B0001344E2B242F000421A60094BC0F880201A
:10A1C00005F13202009330463B460194520012F0F2
:10A1D000BBFB03B0F0BD00BF80A1024080A00240E5
:10A1E00031A1000012F001BC7FB570B9124B1348C9
:10A1F000059302234FF4825104AA04930FF086F9C9
:10A200006FF0150007B05DF804FB836863B90C4B71
:10A210000A48059302234FF4825104AA04930FF0D5
:10A2200075F96FF00400EDE71B681BB107B05DF82E
:10A2300004EB18471846E5E7A2F20100C4E5010067
:10A24000B3F2010030B587B008B101B16AB9134B60
:10A250001348059302234FF4825104AA04930FF08C
:10A2600055F96FF0150007B030BD84680CB1E56892
:10A2700065B90C4B0A48059302234FF4825104AA96
:10A2800004930FF043F96FF00400ECE741F8040B7E
:10A29000E36807B0BDE83040184700BFD1F20100C5
:10A2A000C4E50100B3F2010030B51346044687B09F
:10A2B00068B91A4B1A48059302234FF4825104AA35
:10A2C00004930FF023F96FF0150007B030BD00685C
:10A2D00060B9144B1248059302234FF4825104AA2B
:10A2E00004930FF013F96FF00100EEE782680AB1F2
:10A2F000956865B90C4B0A48059302234FF48251C7
:10A3000004AA04930FF002F96FF00400DDE70A4697
:10A31000AC46616807B0BDE830406047FDF201001F
:10A32000C4E501000EF30100B3F2010008B50422F8
:10A330000021024810F026F8002008BD0000072088
:10A3400030B50C460E4985B00291D0F8AC110546E7
:10A35000CDE9003100F1E0014FF0FF3320460CF071
:10A360009DFC50B9012384F86430D5F8A83123B19D
:10A37000204605B0BDE83040184705B030BD00BFED
:10A380000396010038B50C46114605460FF03BF91F
:10A39000034638B9284604490FF035F90346002032
:10A3A000236038BD0120FBE7391802002DE9F04F8A
:10A3B000012381460569466885B005F55B77D7E8D6
:10A3C000EF2F002A03D1C7E8E13F0029F7D140F081
:10A3D000B880B368B26A043B2632B3EB420F4FEA4F
:10A3E000420126BFB3FBF1F3B3FA83F300234FF02E
:10A3F000010428BFC3F12003013B9C4005F5E4782C
:10A4000000F099801022082170689A4002EB440203
:10A41000043099400932C5F86002063122F0030287
:10A420000A44B16A01FA03FC510001EB4C01C5F882
:10A430006412B16A994000EB4103C5F85832033306
:10A44000134423F00303C5F854327368C5F85C4223
:10A45000C5F850323C4B4046C5E9A963316800F06D
:10A460001DFA044630BBD9F804A0D9F81090DAE9F7
:10A47000073409F5307B012B584608BF103C13F018
:10A48000D3FA0023DAF8240030494FF4806201EB5C
:10A4900080210093584623460DF014FB09F52C70DB
:10A4A0002B4913F083FADAF8140083685C681CB94E
:10A4B0006FF05704002137E04B46264ADAF81810AF
:10A4C000A04704460028F5D1DAF8140083681B6918
:10A4D000002BEDD00122DAF8181098470446002826
:10A4E000E8D11D4B2846C5F8A8311C4BC5F8AC3146
:10A4F0001B4B0393D5F810320293D5F80832CDE9FF
:10A500000083D5F86832B26AD5F8681300F08EF986
:10A5100004460028CED105F1E0000CF06DFC0028C7
:10A52000C5F870030ADB022138460FF0A1F8204677
:10A5300005B0BDE8F08F6FF00B04BBE76FF01504BA
:10A54000B8E76FF07704F2E759960100489D0020C4
:10A550003F9601003396010029A6000011970100E3
:10A56000A19601002DE9F84306464FF0010905695F
:10A57000D0F8048005F55B77D7E8EF3F022B03D1D5
:10A58000C7E8E29F002AF7D149D1264805F14001EA
:10A590000FF0BEFE20B16FF00F042046BDE8F88337
:10A5A000204805F1B0010FF0B3FE0028F3D1284692
:10A5B000D5F868130FF0DFF8044670BB7168366990
:10A5C000486983681B6933B3224689699847044602
:10A5D00018BB06F53076494630460DF0ABFA3046EA
:10A5E00005F5E47601F03AFF3046D8F800100FF098
:10A5F000FFF8044688B90146E82230460FF0C2FE53
:10A6000021464FF4E27228460FF0BCFE2146384640
:10A610000FF02EF8C1E76FF057040221F7E76FF053
:10A620007704BAE73918020013B5044640B1002395
:10A630000122CDE90032074BD0E909120CF0E2FA11
:10A64000A36E1B6823B1E06E02B0BDE8104018474E
:10A6500002B010BD3918020013B50446084621693E
:10A6600001F55B71D1E8AF1F022910D193B1A0B100
:10A670000121CDE900311346D0E909120CF0C2FAEC
:10A68000074B984208BF6FF00B0002B010BD6FF08F
:10A690000F00FAE76FF04C00F7E76FF00100F4E706
:10A6A0002EF8FFFF2DE9F74388461546066906F5A3
:10A6B0005B73D3E8AF3F022B5FD1136823B96FF010
:10A6C000150003B0BDE8F0831B78002BF7D0D6F857
:10A6D0006893B9F1000F33D106F5D8774FF0FF3208
:10A6E0004FF0FF3338460CF081FF30462A6801A94D
:10A6F000FFF748FE019C1CB938460EF0B7FFDEE7B5
:10A7000005F10803A3666B6984F86490E366E4636B
:10A7100060B138460EF0AAFF21463046236E2A6803
:10A72000FFF70EFE0020C8F80040CAE72022296883
:10A7300004F140000FF0C8FD38460EF097FFF1E736
:10A7400030460F490EF05FFF04460028B7D005F1F0
:10A75000080383666B69C063C366002380F86430B6
:10A760002022296840300FF0AFFD224601213046FB
:10A7700000F03EF80028D5D0A1E76FF00F00A0E769
:10A78000391802002DE9F04F05460E469046002785
:10A79000D0F8B0A085B0AAF5AE74214630460FF0CF
:10A7A000B7FDE0B9114BA4F1400B0293DAF8103079
:10A7B0003246CDE9008329464FF0FF335846AAF5CB
:10A7C000CE790CF06BFA60B97023012203FB07937A
:10A7D00083F86420DAF80C300BB15846984770348F
:10A7E00017B105B0BDE8F08F0127D6E773970100D8
:10A7F0001FB5144690B18AB1012912D10A4B00F15C
:10A80000E0010293D0F8AC31403201934FF0FF33B6
:10A81000204600930CF042FA04B010BD6FF0150012
:10A82000FAE70020F8E700BF739701002DE9F04335
:10A8300087B00E46DDE90E811446DDE910251F467E
:10A8400030B329B3DFF850C000F1E009002D08BF94
:10A8500065469EB9CDE9034400F5CE7420460596C1
:10A8600012F091FE03ABCDE900432A463B46414638
:10A8700048460CF0E7FA07B0BDE8F08300224146F5
:10A880000E9248462A4607B0BDE8F0430CF004BCDF
:10A890006FF01500EFE700BF85A70000F0B50E468A
:10A8A000044689B000286FD001230246C363002309
:10A8B000D0F89810364F403040F80C7C42F8301FEA
:10A8C000CDE901334FF0FF330093C36D12F019F956
:10A8D000304A06AB92E8030083E8030018460CF008
:10A8E000B1F80546D8B904F134000CF08BF80546F0
:10A8F000A8B93946284805AA12F0D5F8054670B916
:10A90000059B9A6872B10C33D4F89400C4F8A03057
:10A910000EF060FFC4F8D40030B96FF00B05284684
:10A9200009B0F0BD0346EFE7D4F894000EF052FFF3
:10A93000C4F8D8000028F0D0D4F88C30D4F8A01097
:10A94000C4F8A8300423C4F8AC30C4F8C4300223DF
:10A95000A362124BB4F89420D4F8D470C4F8B810A1
:10A96000C4F8D010D4F89010236204F1A403A4F822
:10A97000B020C4F8A470C4F8C010A4F8C820C4F86B
:10A98000BC00A661E362CAE76FF01505C7E700BF28
:10A9900038F3010064E6010042F30100E4E701003E
:10A9A0002DE9F047044607464FF00109DFF85080D3
:10A9B00014B93846BDE8F08794FAA4F5B5FA85F5E0
:10A9C00009FA05F32E0108EB05156FEA030A24EADC
:10A9D00003042B7B002BEBD058F806301B694BB9D6
:10A9E0004644736804222846196807EA0A0700F0FB
:10A9F0004DFADDE7284698470028D9D1F0E700BF97
:10AA000034E6010030B5002289B00F490F4813F039
:10AA1000D5F9002200230024CDE906230E230C4D96
:10AA2000CDE903344FF440722846CDE90144094B87
:10AA3000094900940CF036FD0849284612F07FFEC3
:10AA4000204609B030BD00BF61AA0000488F002039
:10AA5000B88A002039AD000048A100204AF3010067
:10AA600001480CF0ADBE00BFAC8500202DE9F047D9
:10AA700080461F480F460EF0FFFE0646002830D0E5
:10AA800000252846BDE8F087237B73B12368DB6887
:10AA90000BB12046984723681B69D3B96368042229
:10AAA0002046196800F0F2F9013610344C45EBD31A
:10AAB000B8F1000FE5D0002DE2D02846FFF770FF77
:10AAC0000546002FF7D000214FF4A4700DF096FB3F
:10AAD000F1E7204698470028E0D00AFA06F31D4324
:10AAE000E2E705464FF0010A024CDFF80C90DDE783
:10AAF000CC97002034E6010044E60100014B53F8F6
:10AB0000200070471CE8010008B5034608462BB139
:10AB1000044A136000F06CFC002008BD6FF01500C3
:10AB2000FBE700BF0882002010B5044C237813B95E
:10AB300003480CF045FE0123237010BD599C0020F2
:10AB4000AC85002010B5044606480EF095FE3CB1D9
:10AB5000054BD3E8EF1F0139C3E8E21F002AF8D103
:10AB600010BD00BFC4970020C897002000200146F8
:10AB7000034BD3E8EF0FC3E8E21F002AF9D1704777
:10AB8000C497002070B5FFF7F1FF0546074C084E4B
:10AB9000B44200D370BD63685B792BB123685B68F6
:10ABA00013B12946204698471034F1E734E60100F6
:10ABB00044E6010010B5044C044920460EF007FBA2
:10ABC000034B1C6010BD00BFD484002008E80100C6
:10ABD000BC97002008B50023074A4FF400411370CA
:10ABE000064A07481360074A1360FFF78DFFBDE868
:10ABF0000840FFF7DFBF00BF5A9C0020C497002029
:10AC000075980100C89700200146002200230148E2
:10AC10000EF0FEBAD484002001480EF097BB00BFAE
:10AC2000D4840020024B014618680EF0E1BB00BF3F
:10AC3000BC97002001480EF017BC00BFD484002050
:10AC400070B5264B1878002847D0FFF7E5FF05467A
:10AC500070B1234BD3E8EF1F0139C3E8E21F002A8C
:10AC6000F8D1204C204EB4422DD32846FFF7DAFF0E
:10AC70001E4B1F4C1B68002B19DD13F077F84FF4A7
:10AC80007A72A0FB020302FB0131C30B43EA41438A
:10AC9000D4E900209B1A40F2E9324FEAD13161EB4E
:10ACA0000001934271F1000101D3FFF76BFFD4E97A
:10ACB000003213F57A7342F10002C4E90032BDE8B4
:10ACC0007040FFF7B7BF63685B7923B123682946FB
:10ACD00020461B6898471034C5E770BD599C00207A
:10ACE000C897002034E6010044E60100C497002024
:10ACF000408F002070B50D4D297861B90120FFF714
:10AD0000B5FE0B4C0B4EB44206D3FFF799FF00285B
:10AD1000FBD101232B7070BD63685B791BB1236885
:10AD200020469B6898471034EDE700BF5A9C0020EE
:10AD300034E6010044E6010000212DE9F047084611
:10AD4000FFF794FE044648B340F267684FF00009ED
:10AD50000DF06EFA1A4B186030B11A4B1B68092BB4
:10AD600002DD19480CF02CFD0025184FDFF858A023
:10AD700044B12046FFF714FE044618B94FF0FF38DF
:10AD80004FF0FF39FFF75CFF064628B9B5B94246D8
:10AD90004B4650460CF03AFD3546E9E74FF0FF3898
:10ADA0004FF0FF39D4E72B689B691BB1002228467E
:10ADB000114698471035BD42F5D3E8E7044DFAE750
:10ADC000C0970020C8970020AC85002044E6010011
:10ADD00034E6010013B518480EF04EFD174B1B78F2
:10ADE0007BB14FF02003EFF3118483F31288BFF39C
:10ADF0006F8FFFF725FF84F31188BFF36F8F02B0C9
:10AE000010BD0F4B1B68002BF9D050B90022002356
:10AE10000C48CDE900234FF4004200230DF04CFC18
:10AE2000EDE70A28EBD1074812F0D4FF064802B03C
:10AE3000BDE810400CF0C4BCC89700205A9C00200C
:10AE4000C0970020488F0020AC85002010B5064B2D
:10AE500004461B6898472146A06004480EF056FA45
:10AE6000BDE81040FFF7B6BF08820020D484002060
:10AE7000044A054B9B1AB1EBD30F34BF52F8310093
:10AE80000020704704E5010034E60100084B10B4CF
:10AE9000C31A44681B110133237143689A7101225C
:10AEA0004368196043685A7110BCFFF73DBE00BF8C
:10AEB00034E601002DE9F04F8FB0C1F34A2804AF0A
:10AEC0000D469146B8607B600C0DB8F1000F63D061
:10AED00000264FF0040B4FF00A0A07F11403C7F8DD
:10AEE0000C80C7E907667E620193CDF808B0CDF803
:10AEF00000A007F11C0332464846F968FEF7B2F994
:10AF0000B0F5006F03461CD36C468AB0D9F8041024
:10AF100004AB26481A46C3E9050140F2FF71D96126
:10AF20004FF400711984224B42F8103F4FF4125134
:10AF300033462048FFF7BEFFA5462C37BD46BDE887
:10AF4000F08FC0F30A0804F11700184420F007003E
:10AF500080083B60FFF758FE68F35325044690B124
:10AF60003B6800F11001C7E9083607F11403F961E5
:10AF7000CDE900A3CDF808B048460F4AF96807F1BB
:10AF80001C03FEF76FF968F353252A4620467B68B9
:10AF9000B9680EF0A3FCD0E704F1170020F0070019
:10AFA0008008FFF731FE0446EDE700BF5FF30100C4
:10AFB00004000001CCE50100B19801002DE9F04F3B
:10AFC00087B00446DDE9105ADDE912690F46934661
:10AFD0009846A6B31021334652460020CDF8009083
:10AFE000CDF81490FDF76AFF014605F117000844FB
:10AFF000144B04F007040BF0070BE40020F00700EB
:10B0000003EA412344EA8B1480081C430391FFF7B1
:10B01000FBFD44EA0554054640B13EB13346524675
:10B020000399CDF800901030FDF748FF43462246C3
:10B030003946284607B0BDE8F04F0EF04FBC314608
:10B04000D3E700BF00FE0F000EB403B503AB53F807
:10B05000042B0146044801930EF066FC02B05DF833
:10B0600004EB03B0704700BF51990100CA0605D434
:10B070008B064CBF02490349FFF7E6BF704700BF8C
:10B0800038180200371802002DE9F04F89B09B46AE
:10B09000DDE915769DF8483004460493DDE9139305
:10B0A0000593049B0D460692002B00F0878006F066
:10B0B000080307930EF0FAFB06F0020A0246002886
:10B0C0004BD020468549FFF7BFFF8046BAF1000FFD
:10B0D00008D016F0440F42D12A4620468049FFF797
:10B0E000B3FF804406F001035BB17E4B049A204617
:10B0F00053F822207C4B7D49002A08BF1A46FFF7EF
:10B10000A3FF06F00803002B55D0794B049A204684
:10B1100053F822207749FFF797FF0546069B2BB18E
:10B120001A4620467449FFF78FFF0544BBF1000F14
:10B1300005D05A4620467149FFF786FF054445442D
:10B14000B9F1000F49D1002F4FD1F30700F1C080B2
:10B1500031462046FFF78AFFB4E08046B6E7684BE9
:10B1600018680028BDD0674B4FF47A7E1B684FF4F7
:10B170006162B5FBF3F5B5FBF0F300FB13550EFB75
:10B1800005F5B3FBF2FAB5FBF0FC3C2102FB1A32E9
:10B1900000FB1C55B2FBF1F30EFB05F5B5FBF0F51A
:10B1A00001FB132220460092CDE901C552465649C3
:10B1B000FFF74AFF95E706F00805AFE7BBF1010F7F
:10B1C00006D1B9F1000F64D1002F7BD000250CE02F
:10B1D000B9F1000FF8D04D485CE04D484B4622468F
:10B1E0004C490DF050FB002F68D0DFF82C91DFF8B0
:10B1F0002CA1102F31462046B8464FF0000B28BF37
:10B200004FF01008FFF732FF5D4545DC059B5146C6
:10B2100020461A78FFF718FF4FF0010B1BF0070FBD
:10B2200003D149462046FFF70FFFD8453BD9059B80
:10B230005146204613F80B20FFF706FF0BF1010BD8
:10B24000BBF1100FEAD14FF0000B20463449FFF755
:10B25000FBFE5A46059B20469A5CA2F120015F291D
:10B2600028BF2E222F49FFF7EFFE0BF1010BBBF198
:10B27000100F1DD01BF0070F03D149462046FFF7E2
:10B28000E3FED8455A46E5D849462046FFF7DCFE9E
:10B29000EBE71F48049DA1E749462046FFF7D4FE8F
:10B2A0000BF1010BB0E720461F49FFF7CDFEC5E7C4
:10B2B000059BB7EB0807434405939AD1049B002BE9
:10B2C0007FF443AF204609B0BDE8F04F0EF033BB2A
:10B2D0002046054A0549FFF7B7FE39E7A3F3010009
:10B2E000A7F301002CE801009EF301007CFF0100A0
:10B2F00040E80100CCF30100D2F30100D6F30100D5
:10B30000D4970020D0970020B0F301007F9901006E
:10B31000519901002999010003180200DBF3010093
:10B32000E1F30100E3F30100011802002DE9F0410F
:10B330000F884B6805460C4690468E6886B0C7F36A
:10B3400082175BB1134A9B1A43F3CF0100291FDB1D
:10B350002078C0F3C200FFF78BFD0346214651F869
:10B36000102B6088C2F34A22002A01EB020408BFB6
:10B370000021C0F30B10CDE90308CDE90114002230
:10B38000314628460097FFF77FFE06B0BDE8F08102
:10B390000023E3E704E5010042F20F7373B58B422B
:10B3A00028BF0B4605680446052168460D4A0DF086
:10B3B000E4FA0646636828460B225B680A490EF0E9
:10B3C000A6FA63683246694628465B680EF09FFA23
:10B3D00063681B2228465B6804490EF098FA02B0A5
:10B3E00070BD00BFDAFA010002F40100E6F30100CB
:10B3F00000210123064A904206D8064A01B90123DA
:10B400001360054B18607047012140085B00F2E7AC
:10B4100040420F00D0970020D4970020014B00201D
:10B4200019607047EC9700200122024B02481A7005
:10B430000EF081BA5C9C002070E801000148FFF723
:10B44000ABBF00BF70E8010010B5064B0C46186892
:10B45000FFF754FB2146BDE8104003460F22024887
:10B46000184700BFEC97002070E80100F8B50D46C2
:10B470000446064F4618B44201D12846F8BD14F8D8
:10B48000011BBB6801485B689847F4E724E20100B0
:10B490002DE9F84305464FF02003EFF3118683F3BF
:10B4A0001288BFF36F8F4FF00C090D4B0D4F1C68C6
:10B4B000DFF834802CB986F31188BFF36F8FBDE8B5
:10B4C000F883D4E90123002D18BF13462BB198F857
:10B4D000102009FB02F2B85C98472468EAE700BF35
:10B4E00008980020FC970020FC9B0020012270B5EA
:10B4F000164B1C7C04F01F039A40D043144B610987
:10B5000003EB8103D3E8EF1F01EA0005C3E8E65F20
:10B51000002EF7D10A4213D00E4B0F4D8BB10C23E6
:10B520006343EA185178E85C0DF0E3FF0020FFF771
:10B53000AFFF0C235C4300232A192B51C2E90133CE
:10B5400070BD83F31188BFF36F8FEFE7FC9B002082
:10B5500010980020F3940100FC9700202DE9F041A1
:10B56000324B07461D7C4FF02003EFF3118883F325
:10B570001288BFF36F8F0C246C432D4B2D4E195D39
:10B580001A19002947D007CA06EB040C8CE80700FB
:10B5900000221A5588F31188BFF36F8F0C236B4379
:10B5A000F05CF218A8B37B1C10D04FF400400021CF
:10B5B000D2F808C0204C0023ECFB00411F4A204673
:10B5C000FCF7CAFD0121381A0AF064F80CF05CFDA2
:10B5D0000120FFF75DFF1A4B6A0903EB820301228A
:10B5E00005F01F018A40D3E8EF0F1043C3E8E10FD5
:10B5F0000029F8D1134B3BB10C2303FB05F03318A2
:10B600005978305C0DF069FFFFF770FF0CF050FDCA
:10B610000120BDE8F0810146284600F015F8002819
:10B62000B8D007C8344484E80700B3E7FC9B002087
:10B63000F0970020FC9700203F420F0040420F008F
:10B6400010980020DB9401002DE9F04F85B00E46E4
:10B6500003A900F043F84FF4004704464FF0000BF5
:10B660001B4B039DD3F800A0431E1BB203EB430307
:10B67000DFF8608005EB830524B9A146484605B094
:10B68000BDE8F08FC446594668680023E0FB07C157
:10B69000114A6046FCF760FDC44659460190A8680F
:10B6A0000023E0FB07C10C4A6046FCF755FDBAF1E8
:10B6B000FF3FA94601D0824505D9731CDED0019B0E
:10B6C0001844B042DAD9013CA4B20C3DD4E700BF23
:10B6D0000C8200203F420F0040420F0008B9024B8D
:10B6E0000B600020704700BF80E801000449431E42
:10B6F0000F3013F8012F8A5C83421A70F9D170471A
:10B700004BF40100F0B50746264E8DB001AD0C4656
:10B710000FCE0FC50FCE0FC596E8070085E80700CE
:10B720003846002F39D0002C39D0381F0246214628
:10B7300010344B780D781B0443EA0563CD7804314F
:10B740002B4311F8025C8C4243EA052342F8043F84
:10B75000EFD10421144C8A07036916D1C3F30742C1
:10B76000A55C1A0EA25C42EA0562C3F30725655D7B
:10B77000DBB2E35C42EA054242EA032221F0030322
:10B7800030336B4453F82C3C534050F8042F0131B4
:10B7900053402C290361DED101200DB0F0BD2046BD
:10B7A000FBE700BF6CE601004BF401002DE9F04F10
:10B7B000002703689DB002934368DFF8BCA10393A0
:10B7C0008368DDE902460493C36805930369DDE9F4
:10B7D00004BE0693436907938369DDE9062C089349
:10B7E000C36998460993089B0093CD590CAB2DBAB9
:10B7F0005AF8049BDD514FEAF223A94483EAB213BD
:10B80000009D83EA72634B4425EA020502EA0C09B3
:10B8100085EA09052B44434486EA0B054FEA743850
:10B8200088EAB408254006EA0B0985EA090588EA92
:10B83000B4580437A844402F03EB0E054344DE46BA
:10B84000DDF8008040F088804FF0100A4B490A91E3
:10B8500051460AF1010A0DF1700E0AF00F070EEBC6
:10B86000870757F8407C01F00F094FEAB748019766
:10B8700088EAF71801F10E0707F00F070EEB8707AC
:10B8800057F8407C09314FEAF74E8EEA774ECDF8F3
:10B890002CE001F00F010DF1700E0EEB81010EEBAB
:10B8A000890959F840EC51F8401CBAF1400F714435
:10B8B000DDF804E088EADE08DDF82CE041448EEA99
:10B8C000972E714405EA02084FEAF52E2CEA050787
:10B8D00087EA08078EEAB51EDDF828808EEA756EC5
:10B8E000774458F804EF49F8401C77440F44009916
:10B8F0004FEA733E394484EA0607CDF828808EEA81
:10B90000B30E07EA030704EA06088EEAB35E87EA85
:10B91000080777440F4401EB0B0ECDF800C0B34687
:10B9200022D102993944016003991944049B416072
:10B9300023448360059B3344C360069B73440361C7
:10B94000079B2B444361089B13448361099B634419
:10B95000C3611DB0BDE8F08FB346CDF800C02646E8
:10B9600094461C462A4640E7944626462A461C46EC
:10B9700075463B466CE700BF80E80100BCE801006B
:10B9800010B50446C8B1702200210EF014F80B4B1C
:10B990000B4A0C49C4E900230B4B0C48C4E90213C1
:10B9A0000B4BC4E9040301200A4BA36103F1745358
:10B9B000A3F52303A3F69243E36110BD85AE67BBF5
:10B9C00067E6096A72F36E3C3AF54FA57F520E5155
:10B9D0008C68059BABD9831F014910220A60704710
:10B9E00010ED00E072B6404080F31188BFF36F8F16
:10B9F00001B5FEF7F3FA002802D0BFF34F8F30BF36
:10BA0000BDE8014062B6BFF36F8F704772B6494020
:10BA100081F3118801B5FEF7E1FA002802D0BFF3E7
:10BA20004F8F20BFBDE8014080F3118862B6704798
:10BA30002DE9F04781460C4600AF00294CD0D1E9F2
:10BA400000126E468AB0A3686D464FF0050AA846FC
:10BA50002548C5E90723C5E9050148F810AF0023CB
:10BA600042464FF421512148FFF724FAD4E903124A
:10BA7000B5466369AD461E48C5E90723C5E905011A
:10BA8000C5F810A0002342464FF421511748FFF794
:10BA900011FAB54688B0E3696D464FF0030AA8462F
:10BAA000144AC5E9052348F810AF002342464FF475
:10BAB000C2510E48FFF7FEF9B546A369AD460E4ADE
:10BAC000C5F810A0C5E90523002342464FF4C25132
:10BAD0000648FFF7EFF9B546214648460BF0F2FA63
:10BAE000BD46BDE8F08700BF4BF501000CE6010044
:10BAF0007AF50100A9F50100B8F5010040B200286F
:10BB000007DB01234109034A00F01F00834042F88C
:10BB10002130704700E100E040B200280CDB012238
:10BB20000649430900F01F008240203341F82320DA
:10BB3000BFF34F8FBFF36F8F704700BF00E100E08E
:10BB4000054B420953F82220012300F01F0003FA9D
:10BB500000F01040704700BF00E100E040B2002854
:10BB600001F10101ACBF00F16040064B4FEA411109
:10BB7000C9B2ABBF00F5614000F00F0080F80013C0
:10BB80001954704714ED00E030BFFFF7FDBF00BF50
:10BB90000B4A08B50B4B22F07F029A60BFF34F8F20
:10BBA000BFF36F8FD3F8882022F47002C3F8882087
:10BBB0000BF044FB0CF0B4FB00F0CAFB0BF07EFB77
:10BBC0000080000000ED00E0094A0A499368096816
:10BBD0009867D96708494B6843F080534B6000234E
:10BBE00083F31188BFF36F8F9368D86F704700BFDE
:10BBF000FC9B002028EF010000ED00E015498A6859
:10BC000082F881E04FF030001044EFF3098C80E8B7
:10BC1000F01F202080F31288BFF36F8F0E4F4FF07C
:10BC200000668A698A603E6092F981E0906F002325
:10BC3000936780F3118802F1300090E8F01F8CF3D5
:10BC4000098802F1000004B50EF002FBBDE80440D3
:10BC500070470000FC9B002004ED00E01EF0040F84
:10BC60000CBFEFF30880EFF30980816911F8021C23
:10BC70000229FFD001B50EF0DCFA01BD42F8203CEC
:10BC8000009B0D4942F81C3C019B21F0010142F848
:10BC9000183C029B42F8081C42F8143C4FF0807399
:10BCA00042F8043C002383674FF43C43203A02658A
:10BCB000C0F88030704700BF95890100084B98603C
:10BCC000836E83F30B88104681F30988002163B6E5
:10BCD00081F31188BFF36F8F002200230CF05AFE0E
:10BCE000FC9B002001B572B60B4A506900281EBFAC
:10BCF0000021516111F02AFD62B6EFF30580A0F139
:10BD000010004FEAC0000549014409C99847BDE841
:10BD10000140034908470000FC9B00206CE2010041
:10BD200025BD0000044B99689869884203D00349F7
:10BD30004FF080520A607047FC9B002004ED00E049
:10BD40002DE9F04186B006460D4600AF0224444B73
:10BD50004FF482517B6143483C6107F110020EF0C1
:10BD60007BFA414B9B6ADB0678D5404B3D484FF44C
:10BD70008251C7E9044307F110020EF06DFA112059
:10BD8000394B9B6A1C070BD5394B36487B61022324
:10BD90004FF482513B6107F110020EF05DFA122060
:10BDA000314CA36A990723D5E846324B07F11002BC
:10BDB0007B6102234FF482513B612A480EF04CFA1A
:10BDC000636BA26A120612D588B06A462A492548D2
:10BDD000C2E9051303234FF4C25142F8103F0EF09D
:10BDE0003BFAC5461EB1A36A23F08003A362132069
:10BDF0001D4B9B6ADE070BD5204B1A487B61022343
:10BE00004FF482513B6107F110020EF025FA142025
:10BE1000154B9B6A9C060BD5194B12487B6102237C
:10BE20004FF482513B6107F110020EF015FA152014
:10BE30000D4B18379A6AD10658BF9A6A9A6A9206C9
:10BE400042BF5A6A22F400525A629A6A42F0FF02D2
:10BE50009A6200232B70BD46BDE8F08110208FE769
:10BE6000E6F501000CE6010000ED00E0FCF5010044
:10BE70002FF6010042F601005AF6010070F60100AB
:10BE80008FF601002DE9F04186B006460D4600AF61
:10BE90000224474B4FF482517B6146483C6107F1D5
:10BEA00010020EF0D9F9444B9B6AD9046DD5434B6F
:10BEB00040484FF48251C7E9044307F110020EF0E5
:10BEC000CBF917203C4B9B6A1A050BD53C4B3948E4
:10BED0007B6102234FF482513B6107F110020EF0A7
:10BEE000BBF91820344CA36A9B0523D5E846354B93
:10BEF00030487B61022307F110023B614FF482510D
:10BF00000EF0AAF9A36BA26A100412D588B06A4693
:10BF10002D492848C2E9051303234FF4C25142F8C2
:10BF2000103F0EF099F9C5461EB1A36A23F40043F1
:10BF3000A3621920204B9B6A59050BD5234B1D4842
:10BF40007B6102234FF482513B6107F110020EF036
:10BF500083F91A20184B9A6AD20518D51C4B15483C
:10BF60007B6102234FF482513B6107F110020EF016
:10BF700073F91B20104A1837936A43F47F43936286
:10BF800000232B70BD46BDE8F08116209AE79B6A1E
:10BF90009B04EFD50F4B07487B6102234FF482517E
:10BFA0003B6107F110020EF057F91C20E2E700BFD9
:10BFB000BEF601000CE6010000ED00E0D4F6010041
:10BFC0002FF60100E5F60100FEF6010013F701006F
:10BFD0002EF701008FF6010010B586B002243E4B0B
:10BFE0004FF482513D4804AA059304940EF034F9AD
:10BFF0003B4B9B6A99016CD53A4B38484FF48251C0
:10C0000004AACDE904430EF027F91E20344B9B6AA5
:10C01000DA010AD5344B3148059302234FF482519B
:10C0200004AA04930EF018F91F202D4B9B6ADB0223
:10C030000AD502242D4B29484FF4825104AA0593B6
:10C0400004940EF009F92046254B9B6A1C030AD57F
:10C05000274B2248059302234FF4825104AA0493EC
:10C060000EF0FAF821201E4B9B6A59030AD5214B8A
:10C070001A48059302234FF4825104AA04930EF048
:10C08000EBF82220164B9B6A9A030AD51A4B1348E9
:10C09000059302234FF4825104AA04930EF0DCF8B6
:10C0A00023200F4B9B6ADB030AD5144B0B480593E7
:10C0B00002234FF4825104AA04930EF0CDF82420F9
:10C0C000074A936A6FEA03436FEA1343936206B029
:10C0D00010BD1D209AE700BF46F701000CE60100E5
:10C0E00000ED00E05EF7010071F701008BF7010041
:10C0F000B5F70100D3F70100F8F7010012F80100CD
:10C100002DE9F0478AB07A4B0546D3F804908A4669
:10C110001446002600AFC9F3080886F31188BFF360
:10C120006F8F02F07F43B3F17F4F25D1D30723D424
:10C13000500603D411070FD401260FE06D4B4FF4C6
:10C140008251FB6102236C48BB6107F118020EF0BB
:10C1500083F814F0040400D0554600260023FB7138
:10C16000A8F10303092B00F2A280DFE803F0079592
:10C170009891A0A0A0A0A09B3546EFE7E9464FF01C
:10C1800002085E4B07F11802FB614FF482515A48D6
:10C19000C7F818800EF060F80023554CFB71E36A75
:10C1A0009A070BD5564BC7E906834FF48251524884
:10C1B00007F118020EF050F8002438E0E36A002B73
:10C1C00001DA504BEFE7E36A5B00F5D54E4B07F120
:10C1D0001802C7E906834FF4825147480EF03CF835
:10C1E0006369AA6943F480736361BFF34F8FBFF340
:10C1F0006F8F636932F8022C23F480736361BFF39D
:10C200004F8FBFF36F8F4DF602739A422BD188B0D8
:10C210002B686A463D493848C2E9051303234FF4A9
:10C22000C25142F8103F0EF017F8CD462C68FB794A
:10C23000ABB92022294607F108000EF098F87B6A76
:10C24000002E50D0C3F3080222B96FEA53236FEADD
:10C2500043237B62204607F10801FFF7E9FB2837FB
:10C26000BD46BDE8F087A36ADBB223B10120F91D0A
:10C27000FFF766FD0EE0A36A13F47F4F04D00120A0
:10C28000F91DFFF7FFFD05E0A36AB3F5803F93D3E7
:10C29000FFF7A2FE0446CAE70020F91DE8E70020E8
:10C2A000F91DEEE71A4BFB610223BB617DE7194ADA
:10C2B0006C4619F4F87F8AB0174B18BF13466A46CC
:10C2C00016490D48C2E90513A8F11003D3614FF4D4
:10C2D00000731384124B4FF4115142F8103F0DF0CC
:10C2E000BBFFA54668E723F4FF7323F00103B0E723
:10C2F00000ED00E06BF801000CE601008EF8010093
:10C30000A5F80100C6F80100D4F80100F3F8010017
:10C310000FF9010052F801003DF8010033F9010066
:10C3200004000001044B5A6942F010025A615A6934
:10C3300042F480625A61704700ED00E0EFF308803C
:10C34000EFF3098101B57246FFF7DAFE01BD00BFC8
:10C35000002320210348C2180133452B82F8001323
:10C36000F9D1704700E100E0002080F31488BFF3AA
:10C370006F8F002080F30A8880F30B88FDF732FF6F
:10C3800000200E490860BFF34F8F0D4880F30888E6
:10C3900000F03EF8202080F311880A484FF4006135
:10C3A000401880F30988EFF314800221084380F3DA
:10C3B0001488BFF36F8FFFF7EBFB000094ED00E0F4
:10C3C000E0C30020A0B20020BFF34F8F0549064B09
:10C3D000CA6802F4E0621343CB60BFF34F8F00BF23
:10C3E000FDE700BF00ED00E00400FA050023184659
:10C3F0000649D1F89020C2F30722934200DB704730
:10C40000C1F89830C1F8A0000133F6E700ED00E074
:10C4100010B572B6002484F31388FFF7E7FF2346B4
:10C420004FF0FF300C4A03F120010133102B42F88A
:10C430002100F8D100234FF0FF30074A03F16001DB
:10C440000133102B42F82100F8D162B6BFF34F8FB1
:10C45000BFF36F8F10BD00BF00E100E0084B9B6889
:10C4600083420BD1EFF3058343B1064B5A6842F088
:10C4700080525A605A6A22F400425A620BF0DEBEC1
:10C48000FC9B002000ED00E01FB5094C094A234643
:10C490000121094800F02AF900230393074B0121E9
:10C4A000E41A01A80193029400F02AF904B010BD27
:10C4B000000007200080002080E901004087002064
:10C4C00010B50C7A0B6804F01F0223F01F031A4307
:10C4D000CB68640923F01F03054943EA440343F092
:10C4E0000103C1F89800C1F89C20C1F8A03010BD2C
:10C4F00000ED00E080B500AF88B06A46074BC2E9A6
:10C500000530032342F8103F00234FF4C251044882
:10C51000FEF7D0FC6FF01500BD4680BD4AF9010062
:10C52000ECE501002DE9F04F144606464FF00009F6
:10C5300087B05F4D00AF79607B68994535DAD6F8F2
:10C540000480B8F1000F54D0B8F11F0F1BD918F0B8
:10C550001F0F18D1D6F800B01BF01F0F13D158468B
:10C560000DF07FFE824608EB0B0001380DF079FEDE
:10C5700082451FD06FF0150A6C4688B06A464D4957
:10C58000C2E9051A05E06C4688B06A464A4BC2E922
:10C590000539032342F8103F00234FF4C2514748A6
:10C5A000FEF788FCA5466FF0150420461C37BD46F3
:10C5B000BDE8F08F1AF1160FDED05445DCDDC5F86A
:10C5C00098A0D5F89C00C5F898A0D5F8A02020F038
:10C5D0001F0042F01F08D6E900211144904201F1EA
:10C5E000FF3B1ED1D84508D131465FFA8AF00DF0E5
:10C5F00041FE09F101090C369EE7C5F898A0D5F86F
:10C600009C3021F01F0103F01F030B433146C5F896
:10C610009C30E0B20DF02EFE10F1160FC3D0441C7A
:10C62000E7E7013AD845E0B222F01F02C5F898A02A
:10C6300008D1D5F8A030314603F01F031343C5F8E5
:10C64000A030E7E7D5F8A01001F01F010A43C5F8B4
:10C65000A02031460DF00EFE10F1160FA3D0C5F844
:10C6600098A0D5F89C203B7C08F1FF3862F30403C6
:10C670003B74D5F8A0303A7C5B0863F347123A74F8
:10C68000D6E900321344BB6023F01F03441C43442B
:10C69000A3EB0B03E0B223F01F0307287B6102D951
:10C6A000FFF728FFB8E707F10801FFF709FFB6E732
:10C6B00000ED00E093F9010070F90100ECE50100E4
:10C6C0000522044BC3F89420BFF34F8FBFF36F8F45
:10C6D000704700BF00ED00E0BFF35F8F0022024B08
:10C6E000C3F89420704700BF00ED00E010B5034C84
:10C6F0002278FFF717FF207010BD00BF5D9C00205F
:10C700002DE9F74F294D8A4606464FF00008AB4603
:10C71000274FD0451BDAD6F80490B9F1000F3FD06F
:10C720003168084601910DF09CFD0199044609EB22
:10C73000010001380DF095FD84424FF014021D4BAD
:10C7400008D002FB08F36FF015024BF8032003B08A
:10C75000BDE8F08F14F1160F2C60F8D01978A142C3
:10C76000F5DD02FB08B0C7F89840C7F89840D7F845
:10C770009C4000F10801007B64F304000871D7F8C5
:10C78000A0000C79400860F347140C71D7F89C1096
:10C7900021F01F016960D7F8A01021F01F01296165
:10C7A00008F1010814350C36B3E700BF14980020D7
:10C7B00000ED00E05D9C002038B50E4D2C68082C83
:10C7C00015D80020FFF788FF0B4B0C4AC3F8C02098
:10C7D000844205D10A4B00201C70FFF771FF38BD61
:10C7E000696801EB0011FFF76BFE0130F0E74FF0D5
:10C7F000FF30F4E78CE9010000ED00E0AAFF4400FF
:10C800005D9C0020014B1860704700BF1082002023
:10C810000020024BC3F81406704700BF00500040D0
:10C8200008B5044810F0C5FE00280CBF6FF01200D8
:10C83000002008BD0CE201000E4B402928BF40211A
:10C8400070B51D460C4C4618B04203F1020304D1EA
:10C85000002305F81130074870BD02781209A25C68
:10C8600003F8022C10F8012B02F00F02A25C03F86F
:10C87000012CE9E77C9C0020F8F9010030B5037831
:10C880008BB0044607AD032B21D8DFE803F0021A72
:10C890001C1E124928460DF00DFD059563781E21DA
:10C8A0000493A3780E4A0393E3780E480293237906
:10C8B000019363790093A3790CF05FF809480BB0FA
:10C8C00030BD0949E6E70949E4E70949E2E70A21F9
:10C8D0002846084A0CF051F8DFE700BF99EF010045
:10C8E000BBEF01005E9C0020A0EF0100A7EF01005C
:10C8F000B1EF01006D10020030B50024094D0A4B64
:10C9000085B028460293039411F08EF802AB2846B6
:10C9100000934FF4A3620A2304490BF0D3F8204696
:10C9200005B030BD808F002010FA010048A400201F
:10C93000014601480BF03CB9808F0020034630B41B
:10C940001A780846012A13D0022A26D072B9154A4D
:10C9500002F1100452F8045BA24241F8045BF9D1E1
:10C9600012780A705B8843731B0A837330BC70476C
:10C970000C4A02F1100452F8045BA24241F8045B35
:10C98000F9D112780A705B68C3F3072243731B0C5A
:10C99000C3731B0A82730374E8E7112230BC194683
:10C9A0000DF0E5BC19FA0100012838B505460CBFA9
:10C9B000064807480FF067FD044620B101210C30FE
:10C9C0000FF0BDFD2576204638BD00BF90860020C3
:10C9D0000C8600200246002070B50B460A49D1E8BB
:10C9E000EF4FC1E8E50F002DF9D124B9BDE8704043
:10C9F0000120FFF7D9BF01212082217604F10C002C
:10CA00000FF09DFD204670BD4081002070B50446AA
:10CA10000F2C0D461046194605D80D2C0DD9BDE832
:10CA20007040FFF7D7BF132C07D10C480FF02BFD38
:10CA3000044638B90024204670BD02460B4645B175
:10CA40000748F3E701210C300FF079FD012323762D
:10CA5000F1E70120BDE87040FFF7A6BF1487002072
:10CA60006486002070B58EB06C4606460A4D0D2EC9
:10CA70000FCD0FC40FCD0FC40FCD0FC495E8030029
:10CA800084E803009DBF0EAB03EB860656F8380C16
:10CA900002480EB070BD00BF98E6010032FA0100F6
:10CAA00038B5C368B3F801401B7863B9204602F07B
:10CAB00081FF054640B9084B1A8822B96FEA045035
:10CAC0006FEA1050188038BD012102F07BFF284624
:10CAD000BDE838400EF059B8389C002010B5084C1D
:10CAE0000146052294F86F0003F0C8F938B994F8AC
:10CAF0006F000422BDE81040024903F0BFB910BD29
:10CB000000800020DEF9010080B5C36800AF88B066
:10CB10006A461B7806490748C2E9051303234FF408
:10CB2000C45142F8103F0DF0FAFCBD4680BD00BF75
:10CB30003AFA01005CE501007FB5064B4FF48251E3
:10CB400005930223044804AA04930DF0E8FC07B0FF
:10CB50005DF804FB62FA01005CE5010098B501464E
:10CB600000AF0D480FF096FC0C490D4810F04BFF3C
:10CB700000280EDA6C4688B06A460A4B4FF4C25160
:10CB8000C2E905300323084842F8103F0DF0C7FC06
:10CB9000A546BD4698BD00BF4481002050820020BC
:10CBA000B09000207CFA01005CE501000B46B0B5B6
:10CBB0000D8A00AF04462946D868FFF73DFE8AB0CB
:10CBC0006A46094BC2E90750C2E9053440F2024304
:10CBD0009384064B4FF43251054842F8103F0DF054
:10CBE0009EFCBD46B0BD00BF99FA010005000001E2
:10CBF0005CE5010080B5012100AF0C300FF0D3FCE3
:10CC000088B06A46037806490648C2E9051303233B
:10CC10004FF4C25142F8103F0DF081FCBD4680BD7B
:10CC2000BBFA01005CE50100B0B5C36800AF1C8829
:10CC3000204602F0BFFE80B96D4688B06A46084BB8
:10CC40004FF4C251C2E905340323064842F8103FAD
:10CC50000DF065FCAD46BD46B0BD0DF096FFFAE7A0
:10CC6000DDFA01005CE50100B0B5C36800AFB3F8C0
:10CC70000140204602F09EFE80B96D4688B06A46AB
:10CC8000084B4FF4C251C2E905340323064842F869
:10CC9000103F0DF044FCAD46BD46B0BD0DF075FF34
:10CCA000FAE700BFDDFA01005CE501002DE9F04183
:10CCB000C56800AF2E78AEB9B5F80180404602F0E5
:10CCC00079FE044688B96C4688B06A460B4B4FF42F
:10CCD000C251C2E905380323094842F8103F0DF05C
:10CCE0001EFCA546BD46BDE8F081EB7831460373D6
:10CCF00002F068FE20460DF048FFF3E701FB01005B
:10CD00005CE50100B0B5044600AF02EBC3039342FB
:10CD100003D12046FFF74AFF18E0104610F8085BE1
:10CD2000A54219D10B8A5078984211D96D4688B026
:10CD30006A460A49D461C2E9051304234FF401513C
:10CD4000074842F8103F0DF0EAFBAD46BD46B0BDC6
:10CD5000084653689847F9E70246D8E727FB0100E1
:10CD60005CE50100F8B5554800AF0FF0A9FB04469B
:10CD700000286AD0037E012B69D0032B40F09980F4
:10CD8000038A032B0CD84FF4FB734D4A4D494E4890
:10CD90000CF014F9404080F311884FF0030002DFDB
:10CDA000042104F10C000FF0FEFBFF2243880688EB
:10CDB000218AC6F30B008B426083627610D06D46E9
:10CDC00088B06A464148D3610423C2E905014FF4A3
:10CDD000015142F8103F3E480DF0A1FBAD4664E022
:10CDE00002F0E8FD054660B96D4688B0638B6A467F
:10CDF0003849C2E9051303234FF4C25142F8103FEA
:10CE0000E9E702F0DDFE21466076320B284602F0AB
:10CE10007DFC28460DF0B9FE2F4BD3F84431A3B169
:10CE20002E492F4810F0EFFD00280EDA6C4688B02E
:10CE30006A462C4B4FF4C251C2E905300323244803
:10CE400042F8103F0DF06BFBA546BD46F8BD038AC6
:10CE5000012B0CD840F64723194A1A491A480CF0FE
:10CE6000ADF8404080F311884FF0030002DF02214B
:10CE700004F10C000FF097FB054600780DF019FB4C
:10CE800083070CD440F64B230D4A17490E480CF08B
:10CE900095F8404080F311884FF0030002DF06232D
:10CEA0002146124A2878FFF72DFF204607F082F925
:10CEB000B2E76D4688B06A460D499AE74481002082
:10CEC00049FB01007DFB010096FB0100B3FB010063
:10CED0005CE50100D7FB01000080002050820020AB
:10CEE000B09000207CFA0100F9FB01004CEA01003F
:10CEF00027FC010010B5012104460C300FF053FB54
:10CF00002146BDE810400A23014A0078FFF7FABE27
:10CF10007CEA0100F8B5C56800AFB5F8016030469D
:10CF200002F048FD044680B96C4688B06A460F4B53
:10CF30004FF4C251C2E9053603230D4842F8103FB1
:10CF40000DF0EDFAA546BD46F8BD2B7823B90822B1
:10CF5000E91CAD300DF00BFA4FF48051201D0DF09F
:10CF6000D3FA20460DF011FEEDE700BFDDFA010017
:10CF70005CE501002DE9F843064600AF907A88464B
:10CF8000144607F055F8414D854218D0A47AE8467A
:10CF9000204607F04DF88AB06A463D4BC2E907408B
:10CFA000C2E90536062355624FF44251394842F82A
:10CFB000103F0DF0B4FAC546BD46BDE8F8832046E3
:10CFC00007F03EF84FF00C09334D09FB0050438841
:10CFD000B34216D0204607F033F809FB00506C46E8
:10CFE00088B06A464388D36104232C492948C2E9A2
:10CFF00005164FF4025142F8103F0DF090FAA54685
:10D00000DAE7274ED6F8400120B107F0D3F8002325
:10D01000C6F84031204607F013F80C2606FB0050F6
:10D020004368ABB1B8F1000F12D1204607F008F801
:10D03000012106FB00504268D2E90003127A03F096
:10D040001F06B1405B09DAB100EB83000DF05CFA1A
:10D05000204606F0F5FF0C2606FB00508368002BE7
:10D06000AAD0204606F0ECFF704305F80080204669
:10D0700006F0E6FF06FB0055A8680AF0A1FB9BE757
:10D08000C94300EB83000DF04DFAE1E7E88600208C
:10D090003BFC01005CE501002898002070FC0100C9
:10D0A0000080002038B5042104460C300FF07BFAD4
:10D0B0004578017822464088FFF75CFF25B1BDE83E
:10D0C000384002480AF07CBB38BD00BF28810020F0
:10D0D00038B5032104460C300FF065FAE368057893
:10D0E00022461978B0F80100FFF744FF25B1BDE8EA
:10D0F000384002480AF064BB38BD00BF28810020D8
:10D100002DE9F04F87B00123D0F80C80018A98F800
:10D11000004000AF03EB84038B4240F28C806D46ED
:10D120008AB06A46C2E90731052345484FF42151C8
:10D13000C2E90504434842F8103F0DF0F0F9AD464E
:10D140001C37BD46BDE8F08F6C4688B06A463E4B42
:10D150004FF4C251C2E9053B03233A4842F8103F5D
:10D160000DF0DDF9A546013598F800309D42E7DA6B
:10D1700008EB8503B3F801B0B3F80360584602F03A
:10D1800019FC04460028DFD000F1280B46B34FF00D
:10D190002003EFF3118283F31288BFF36F8FE369EB
:10D1A0006BB1013BE36182F31188BFF36F8F2046BF
:10D1B00002F072FA013E0AF003FBB6B2E6E76369D9
:10D1C00093B982F31188BFF36F8F02234FF482511A
:10D1D0001C4807F11002C7F814A03B610DF09FF93D
:10D1E00020460DF0D2FCBEE7A16918688B42606151
:10D1F00008BFA06182F31188BFF36F8F4FF0200248
:10D20000EFF3118182F31288BFF36F8FDA68E26166
:10D21000C3F80C90C3F80090626A4AB9C4E90833B5
:10D2200081F31188BFF36F8F58460AF045FCBEE7C3
:10D2300013606362F4E70025DFF810A0A94693E7C6
:10D24000A3FC01005CE50100CDFC0100E9FC01004C
:10D25000F0B583B0C56800AFB5F80160304602F0A4
:10D26000A9FB044688B96C4688B06A462B4B4FF43C
:10D27000C251C2E905360323294842F8103F0DF098
:10D280004EF9A5460C37BD46F0BD2B78061D1A2B6E
:10D2900017D1C378012B28D14FF4806130460DF0AF
:10D2A00033F942050DD4D4F8A03039463B60D4F8A8
:10D2B000A83020467B6003F0C5F820460DF065FCE1
:10D2C000E0E72B788BB9B5F80330A4F89E30B5F8B9
:10D2D0000530A4F8A430B5F80730A4F8A6306FF4F0
:10D2E000807130460DF01EF914E0D6E8AF3FDB0543
:10D2F000F5D52B78202BF2D194F8AC30002BEED062
:10D30000013B84F8AC304FF42032002304F1580084
:10D310000AF078FC204602F075FCCEE7DDFA010049
:10D320005CE5010010B5C1E900239DF808300C460A
:10D330000B7206F085FE0C22024B02FB00335C6090
:10D3400010BD00BF289800202DE9F0474FF0FF32B4
:10D350004FF0FF33064617480F460FF094F84FF092
:10D360000008044600F10C0A012150460FF0E7F8CE
:10D37000204684F8188006F063FE4FF00C090E4D2D
:10D3800009FB00504680204606F05AFE09FB00507B
:10D39000C0F80880204606F053FE09FB0055032123
:10D3A0005046C5F804800FF0CEF8068087702046FE
:10D3B000BDE8F087E8860020289800202DE9F0439A
:10D3C00087B0064615460C4600AF21B9FFF7BCFFF3
:10D3D000044600285FD001220021384610F063FA8D
:10D3E000204606F02DFE0C23DFF8B09003FB0090E2
:10D3F000876020460FF07DF8014629480FF077F846
:10D400004FF4A022002338460AF000FA804688B183
:10D410004FF4A573234A244924480BF0CFFD42461C
:10D42000314623480BF0CAFD404080F311884FF08D
:10D43000030002DF204606F003FE0C23584319F8D0
:10D440000080B8F1000F1ED06D4688B06A46194BB7
:10D45000C2F81C80C2E9053604234FF40251164875
:10D4600042F8103F0DF05BF82046AD4606F0A2FEF4
:10D47000B8F1090F14BF6FF004006FF06E001C3795
:10D48000BD46BDE8F08315B12C600020F7E72046CB
:10D4900006F090FEF9E76FF06800F0E728980020AA
:10D4A0004C81002049FB010000FD010096FB0100BA
:10D4B00009FD010035FD01005CE5010070B588B093
:10D4C00006460D4642F22F00002101AAFFF776FF23
:10D4D000044660B10B4B4FF48251079302230A4874
:10D4E00006AA06930DF01BF8204608B070BD0198FF
:10D4F000C368B3F801203280B3F803302B8006F004
:10D5000059FEF1E751FD01005CE50100F7B5144B50
:10D51000054693F99B300C46002B1DDA14B92046C2
:10D5200003B0F0BD082C4FF0000142F2180001AA30
:10D53000264628BF0826FFF741FF0028F0D1019FAB
:10D540003246F968284601310CF011FF384606F0E2
:10D5500031FE3544A41BE1E76FF08500E0E700BF32
:10D56000008000202DE9F0478CB005460026AC4B2A
:10D57000B0F80180198848F47042914202AF04BFAC
:10D580001E80012601F046F82C78A4B33C2C22D151
:10D5900001F042FB6FF0800110300CF0C3FF00205F
:10D5A000FFF79CFA054670B99E4B4FF482517B629F
:10D5B00002239D483B6207F120020CF0B0FF2837A0
:10D5C000BD46BDE8F0870473002102F0FBF9284650
:10D5D0000DF0DBFAF3E76D4688B002AA934B4FF4E7
:10D5E000C451C2E9053403238F4842F8103F0CF0C0
:10D5F00096FFAD46E3E7EB7805F10409012B08BF80
:10D600008B4B484608BF93F86F400CF04EFF4946DD
:10D6100048B307F110000CF03EFF062205F111019E
:10D6200007F109000CF0A3FE01233B72EB78012BFC
:10D6300029D04846FFF722F96C4688B002AA7D4BF4
:10D640004FF4E251C2E905304FF4007393837A4BF3
:10D65000754842F8103F0CF062FF1F21A546404676
:10D660000CF078FFABE720460DF0D1F80722014619
:10D6700007F110000CF07BFE0722494607F1080075
:10D680000CF075FED2E707F11000FFF727FAEB78F0
:10D690000446012B0AD101F0BFFA82466FF08001E7
:10D6A00010300CF03FFF50460DF0C9F9002CC0D0EF
:10D6B0002046B5F80130072220F8883B07F1100119
:10D6C0000CF055FE0022B5F81730A4F89E30B5F8DE
:10D6D0001930A4F8A430B5F81B30A4F8A630EB78C4
:10D6E0002273012BE37018D1072207F1080104F11E
:10D6F0008F000CF03CFE01F08FFA217A4C4DC1EB0B
:10D70000C1012944072204F196000CF030FED5F83F
:10D71000E4305D0601D501F047FC0721204602F008
:10D7200051F91EB10121204602F04CF920460DF0BE
:10D7300062FA637B072B6ED1231DD3E8AF3F13F44E
:10D74000805F3B4D29D1E3781BB195F8D83018079D
:10D7500023D5022142F21600FFF7F6FD0646002807
:10D760005BD002210C300EF0EEFE238800220380F5
:10D77000314642F21600FFF721FE70B16E4688B0C6
:10D7800002AA2E4B4FF4C251C2E9053003232648AA
:10D7900042F8103F0CF0C3FEB54695F8D930D907D2
:10D7A00016D50021022320461A4600910CF00BFFEB
:10D7B00070B16E4688B002AA214B4FF4C251C2E943
:10D7C00005300323184842F8103F0CF0A8FEB54678
:10D7D00095F8D8309A061ED5D5F864319B689B071A
:10D7E00019D5B91D381DFFF769FEA0B92046FA8882
:10D7F000B9880CF0CAFE70B16D4688B002AA114B10
:10D800004FF4C251C2E905300323074842F8103FE4
:10D810000CF085FEAD462046DAE66FF06800ADE715
:10D82000389C002071FD01005CE5010092FD0100C3
:10D8300000800020ABFD010003000001C7FD0100D6
:10D84000E8FD0100FFFD010010B5C16888B00B784C
:10D85000174C8DF80030B1F801300722ADF80130D7
:10D86000CB7801A88DF80330B1F80B300431ADF856
:10D870001730B1F80930ADF81930B1F80B30ADF808
:10D880001B304B7B8DF81D300CF071FD21460622BC
:10D890000DF10B000CF06BFD062221460DF111007D
:10D8A0000CF065FD6846FFF75DFE08B010BD00BFD7
:10D8B000F2F9010029289ABF014B185C0920704732
:10D8C0006E010200F0B587B0C36800AFB3F8016025
:10D8D0001D78304602F06EF8044688B96C4688B070
:10D8E0006A461F4B4FF4C251C2E9053603231D4857
:10D8F00042F8103F0CF013FEA5461C37BD46F0BDA4
:10D900005DB12846FFF7D6FF29460246204602F0C1
:10D9100021FA20460DF039F9EFE78378012BF0D199
:10D9200006F088F920460CF0D6FD0028E9D1052044
:10D93000FFF7C0FF05210246204602F00BFA0A4B12
:10D940004FF482517B610223064807F110023B61CC
:10D950000CF0E5FD052120460DF056F9D9E700BF92
:10D9600001FB01005CE501001BFE01002DE9F04117
:10D9700086B0C66800AFB6F801803578404602F040
:10D9800019F8044690B96C4688B06A46234B4FF4A8
:10D99000C251C2E905380323214842F8103F0CF078
:10D9A000BEFDA5461837BD46BDE8F0815DB12846ED
:10D9B000FFF780FF29460246204602F0CBF92046B9
:10D9C0000DF0E3F8EEE78278F378012AC37205D010
:10D9D0000020FFF76FFF00210246EDE70BB106F0D4
:10D9E00029F920460CF077FD0028F1D10520FFF73A
:10D9F00061FF05210246204602F0ACF9094B4FF4C5
:10DA000082517B610223064807F110023B610CF052
:10DA100086FD052120460DF0F7F8D0E701FB010057
:10DA20005CE501001BFE0100024BD3F864315B6929
:10DA3000184700BF00800020F8B505460C4600AF2F
:10DA400019B9FFF781FC044618B340F635439D42EF
:10DA500019D12046FFF7E8FF054688B16E4688B029
:10DA60006A460D4B4FF4C251C2E9053003230B48FF
:10DA700042F8103F0CF053FD2046B54606F09AFBE5
:10DA80002846BD46F8BD214605480EF030FD00256C
:10DA9000F6E76FF06805F3E741FE01005CE5010081
:10DAA0004C8100202DE9F04186B00446458B467E2E
:10DAB00000AF807A06F0BCFA21460FF0E6FE2D4B4F
:10DAC00093F88A309B0613D5304602F05BFB044680
:10DAD00090B96C4688B06A46274B4FF4C451C2E9EE
